{
  "contractName": "BizoftTokenSale",
  "abi": [
    {
      "constant": true,
      "inputs": [],
      "name": "tokenSold",
      "outputs": [
        {
          "name": "",
          "type": "uint256"
        }
      ],
      "payable": false,
      "stateMutability": "view",
      "type": "function"
    },
    {
      "constant": true,
      "inputs": [],
      "name": "tokenContract",
      "outputs": [
        {
          "name": "",
          "type": "address"
        }
      ],
      "payable": false,
      "stateMutability": "view",
      "type": "function"
    },
    {
      "constant": true,
      "inputs": [],
      "name": "tokenPrice",
      "outputs": [
        {
          "name": "",
          "type": "uint256"
        }
      ],
      "payable": false,
      "stateMutability": "view",
      "type": "function"
    },
    {
      "inputs": [
        {
          "name": "_tokenContract",
          "type": "address"
        },
        {
          "name": "_tokenPrice",
          "type": "uint256"
        }
      ],
      "payable": false,
      "stateMutability": "nonpayable",
      "type": "constructor"
    },
    {
      "anonymous": false,
      "inputs": [
        {
          "indexed": false,
          "name": "_buyer",
          "type": "address"
        },
        {
          "indexed": false,
          "name": "_amount",
          "type": "uint256"
        },
        {
          "indexed": false,
          "name": "_value",
          "type": "uint256"
        }
      ],
      "name": "Sell",
      "type": "event"
    },
    {
      "constant": false,
      "inputs": [
        {
          "name": "_numberOfToken",
          "type": "uint256"
        }
      ],
      "name": "buyTokens",
      "outputs": [],
      "payable": true,
      "stateMutability": "payable",
      "type": "function"
    },
    {
      "constant": false,
      "inputs": [],
      "name": "endSale",
      "outputs": [],
      "payable": false,
      "stateMutability": "nonpayable",
      "type": "function"
    }
  ],
  "bytecode": "0x608060405234801561001057600080fd5b50604051604080610a2c8339810180604052604081101561003057600080fd5b810190808051906020019092919080519060200190929190505050336000806101000a81548173ffffffffffffffffffffffffffffffffffffffff021916908373ffffffffffffffffffffffffffffffffffffffff16021790555081600160006101000a81548173ffffffffffffffffffffffffffffffffffffffff021916908373ffffffffffffffffffffffffffffffffffffffff160217905550806002819055505050610948806100e46000396000f3fe60806040526004361061004a5760003560e01c80633610724e1461004f578063380d831b1461007d578063519ee19e1461009457806355a373d6146100bf5780637ff9b59614610116575b600080fd5b61007b6004803603602081101561006557600080fd5b8101908080359060200190929190505050610141565b005b34801561008957600080fd5b506100926104cf565b005b3480156100a057600080fd5b506100a96107fe565b6040518082815260200191505060405180910390f35b3480156100cb57600080fd5b506100d4610804565b604051808273ffffffffffffffffffffffffffffffffffffffff1673ffffffffffffffffffffffffffffffffffffffff16815260200191505060405180910390f35b34801561012257600080fd5b5061012b61082a565b6040518082815260200191505060405180910390f35b3461014e82600254610830565b146101c1576040517f08c379a00000000000000000000000000000000000000000000000000000000081526004018080602001828103825260128152602001807f56616c7565206973206e6f742076616c6964000000000000000000000000000081525060200191505060405180910390fd5b80600160009054906101000a900473ffffffffffffffffffffffffffffffffffffffff1673ffffffffffffffffffffffffffffffffffffffff166370a08231306040518263ffffffff1660e01b8152600401808273ffffffffffffffffffffffffffffffffffffffff1673ffffffffffffffffffffffffffffffffffffffff16815260200191505060206040518083038186803b15801561026157600080fd5b505afa158015610275573d6000803e3d6000fd5b505050506040513d602081101561028b57600080fd5b81019080805190602001909291905050501015610310576040517f08c379a000000000000000000000000000000000000000000000000000000000815260040180806020018281038252601e8152602001807f4e756d626572206f6620746f6b656e206578636565642062616c616e6365000081525060200191505060405180910390fd5b600160009054906101000a900473ffffffffffffffffffffffffffffffffffffffff1673ffffffffffffffffffffffffffffffffffffffff1663a9059cbb33836040518363ffffffff1660e01b8152600401808373ffffffffffffffffffffffffffffffffffffffff1673ffffffffffffffffffffffffffffffffffffffff16815260200182815260200192505050602060405180830381600087803b1580156103b957600080fd5b505af11580156103cd573d6000803e3d6000fd5b505050506040513d60208110156103e357600080fd5b8101908080519060200190929190505050610449576040517f08c379a00000000000000000000000000000000000000000000000000000000081526004018080602001828103825260218152602001806108fc6021913960400191505060405180910390fd5b806003600082825401925050819055507fed7a144fad14804d5c249145e3e0e2b63a9eb455b76aee5bc92d711e9bba3e4a338234604051808473ffffffffffffffffffffffffffffffffffffffff1673ffffffffffffffffffffffffffffffffffffffff168152602001838152602001828152602001935050505060405180910390a150565b6000809054906101000a900473ffffffffffffffffffffffffffffffffffffffff1673ffffffffffffffffffffffffffffffffffffffff163373ffffffffffffffffffffffffffffffffffffffff1614610591576040517f08c379a00000000000000000000000000000000000000000000000000000000081526004018080602001828103825260118152602001807f556e617574686f72697a65642063616c6c00000000000000000000000000000081525060200191505060405180910390fd5b600160009054906101000a900473ffffffffffffffffffffffffffffffffffffffff1673ffffffffffffffffffffffffffffffffffffffff1663a9059cbb6000809054906101000a900473ffffffffffffffffffffffffffffffffffffffff16600160009054906101000a900473ffffffffffffffffffffffffffffffffffffffff1673ffffffffffffffffffffffffffffffffffffffff166370a08231306040518263ffffffff1660e01b8152600401808273ffffffffffffffffffffffffffffffffffffffff1673ffffffffffffffffffffffffffffffffffffffff16815260200191505060206040518083038186803b15801561069057600080fd5b505afa1580156106a4573d6000803e3d6000fd5b505050506040513d60208110156106ba57600080fd5b81019080805190602001909291905050506040518363ffffffff1660e01b8152600401808373ffffffffffffffffffffffffffffffffffffffff1673ffffffffffffffffffffffffffffffffffffffff16815260200182815260200192505050602060405180830381600087803b15801561073457600080fd5b505af1158015610748573d6000803e3d6000fd5b505050506040513d602081101561075e57600080fd5b81019080805190602001909291905050506107c4576040517f08c379a00000000000000000000000000000000000000000000000000000000081526004018080602001828103825260248152602001806108b76024913960400191505060405180910390fd5b6000809054906101000a900473ffffffffffffffffffffffffffffffffffffffff1673ffffffffffffffffffffffffffffffffffffffff16ff5b60035481565b600160009054906101000a900473ffffffffffffffffffffffffffffffffffffffff1681565b60025481565b60008083141561084357600090506108b0565b600082840290508284828161085457fe5b04146108ab576040517f08c379a00000000000000000000000000000000000000000000000000000000081526004018080602001828103825260218152602001806108db6021913960400191505060405180910390fd5b809150505b9291505056fe43616e6e6f74207472616e73666572206261636b2072656d61696e6e6742616c616e6365536166654d6174683a206d756c7469706c69636174696f6e206f766572666c6f774572726f72207768656e207472616e7366657220746f6b656e2070726f63657373a165627a7a7230582049a22eec7b70d1fbbbfa8124bbc8e709249cf631e3773bebef091bedf86b9a200029",
  "source": "pragma solidity ^0.5.0;\n\nimport \"./BizoftToken.sol\";\n\ncontract BizoftTokenSale{\n    address payable admin;\n    BizoftToken public tokenContract;\n    uint256 public tokenPrice;\n    uint256 public tokenSold;\n\n    event Sell(\n        address _buyer,\n        uint256 _amount,\n        uint256 _value\n    );\n\n    constructor(BizoftToken _tokenContract, uint256 _tokenPrice) public {\n        admin = msg.sender;\n        tokenContract = _tokenContract;\n        tokenPrice = _tokenPrice;\n    }\n\n    function mul(uint256 a, uint256 b) internal pure returns (uint256) {\n        if (a == 0) {\n            return 0;\n        }\n\n        uint256 c = a * b;\n        require(c / a == b, \"SafeMath: multiplication overflow\");\n\n        return c;\n    }\n\n    function buyTokens(uint256 _numberOfToken) public payable{\n        require(mul(_numberOfToken, tokenPrice) == msg.value, \"Value is not valid\");\n\n        require(tokenContract.balanceOf(address(this)) >= _numberOfToken, \"Number of token exceed balance\");\n\n        require(tokenContract.transfer(msg.sender, _numberOfToken), \"Error when transfer token process\");\n\n        tokenSold += _numberOfToken;\n        \n        emit Sell(msg.sender, _numberOfToken, msg.value);\n    }\n\n    function endSale() public {\n        require(msg.sender == admin, \"Unauthorized call\");\n        require(tokenContract.transfer(admin, tokenContract.balanceOf(address(this))),\n            \"Cannot transfer back remainngBalance\");\n\n        selfdestruct(admin);\n    }\n}",
  "sourcePath": "/Users/andrix/Documents/personal/chain/token/contracts/BizoftTokenSale.sol",
  "compiler": {
    "name": "solc",
    "version": "0.5.8+commit.23d335f2.Emscripten.clang"
  },
  "schemaVersion": "3.0.11",
  "updatedAt": "2019-07-04T08:00:06.447Z",
  "devdoc": {
    "methods": {}
  },
  "userdoc": {
    "methods": {}
  }
}